:020000040800F2
:10000000100D002039040008DD010008DF010008A0
:10001000E3010008E7010008EB0100080000000010
:10002000000000000000000000000000EF010008D8
:10003000F101000800000000F3010008F5010008CC
:100040005304000853040008530400085304000834
:100050005304000853040008530400085304000824
:100060005304000853040008530400085304000814
:100070005304000853040008530400085304000804
:1000800053040008530400085304000853040008F4
:1000900053040008530400085304000853040008E4
:1000A00053040008530400085304000853040008D4
:1000B00021330008DF2F000809330008530400082B
:1000C00053040008530400085304000853040008B4
:1000D0005304000853040008530400080F390008B3
:1000E0006D450008530400085304000800F002F8AE
:1000F00000F05FF80AA090E8000C82448344AAF163
:100100000107DA4501D100F054F8AFF2090EBAE860
:100110000F0013F0010F18BFFB1A43F0010318473B
:1001200090B50000B0B500000A444FF0000C10F884
:10013000013B13F0070408BF10F8014B1D1108BF65
:1001400010F8015B641E05D010F8016B641E01F805
:10015000016BF9D113F0080F1EBF10F8014BAD1C55
:100160000C1B09D16D1E58BF01F801CBFAD505E073
:1001700014F8016B01F8016B6D1EF9D59142D6D3CD
:10018000704700000023002400250026103A28BFF5
:1001900078C1FBD8520728BF30C148BF0B607047F9
:1001A000642907F05987002070471FB51FBD10B59F
:1001B00010BD08F021F91146FFF7F7FF00F00CF928
:1001C00008F03FF903B4FFF7F2FF03BC02F0D2FAE4
:1001D00030BF72B662B680F308887047704700BFC0
:1001E000FEE700BFFEE700BFFEE700BFFEE7704787
:1001F00070477047704700000CB5002001900090D8
:100200006C48006840F480306A49086000BF694863
:10021000006800F4003000900198401C01900098A4
:1002200018B90198B0F5A06FF1D16248006800F4E8
:10023000003010B10120009001E0002000900098F3
:10024000012843D15C48006840F010005A4908601A
:100250000846006820F0030008600846006840F087
:1002600002000860534840685249486008464068A8
:1002700048600846406840F480604860084640682E
:1002800020F47C1048600846406840F4E81048605C
:100290000846006840F08070086000BF454800686C
:1002A00000F000700028F9D04248406820F00300B8
:1002B000404948600846406840F00200486000BF7E
:1002C0003C48406800F00C000828F9D10CBD10B57E
:1002D000FFF792FF10BD10B53648006840F00100EE
:1002E000344908600846406834490840314948604C
:1002F00008460068324908402E49086008460068F0
:1003000020F4802008600846406820F4FE00486021
:100310004FF41F008860FFF7DAFF4FF000602949B3
:10032000086010BD10B5002100200022214B5B6841
:1003300003F00C0121B1042906D0082928D107E0D7
:10034000214B224C236027E01F4B204C236023E0ED
:10035000184B5B6803F47010164B5B6803F4803233
:10036000022303EB904022B9194B4343174C2360FF
:100370000DE0104B5B6803F4003323B1144B43438F
:10038000124C236003E0104B4343104C236003E006
:100390000D4B0E4C236000BF00BF064B5B68C3F3E0
:1003A00003130C4CE15C094B1B68CB40074C2360EA
:1003B00010BD000000100240002002400000FFF8C5
:1003C000FFFFF6FE08ED00E000127A0000000020BA
:1003D00000093D000400002002F004F8022002F0B1
:1003E0005BF9012002F058F902F016FA02F046FA21
:1003F000002141F61F4002F073FE4FF4E13002F09D
:10040000C8F94FF4165003F033FA02F0C1FE02F0BF
:100410000CFF02F0D1FC02F097FF02F05AFC07F04B
:1004200010FC07F022FC47214FF6FF7002F050FD50
:1004300003F010FB00BFFEE709488047094800476A
:10044000FEE7FEE7FEE7FEE7FEE7FEE7FEE7FEE784
:10045000FEE7FEE704480549054A064B70470000E1
:10046000D7020008ED00000810070020100D002042
:10047000100900201009002031490143314A116060
:10048000704770B5002100230F22C47804B32D4CAF
:10049000246804F4E064C4F5E064210AC1F10403B3
:1004A000CA40447804FA03F18478144021430901D6
:1004B000254C0678A155047804F01F050124AC40B2
:1004C00005786D11AD0005F1E025C5F8004109E0A2
:1004D000047804F01F050124AC401C4D0678761109
:1004E00045F8264070BD1A4A0A400243154B1B1FAF
:1004F0001A60704739B1134A121D12680243114B3A
:100500001B1D1A6006E00F4A121D126882430D4B34
:100510001B1D1A607047042808D14FF0E0210969BB
:1005200041F004014FF0E022116107E04FF0E021BB
:10053000096921F004014FF0E022116170470000C9
:100540000000FA050CED00E000E400E080E100E0CE
:1005500080FFFF1F10B50446FA48844208D10121EC
:10056000401500F0E3FD0021601500F0DFFD17E00D
:10057000F548844208D10121001500F0D7FD002183
:10058000201500F0D3FD0BE0F048844208D1012192
:10059000C80300F0CBFD00214FF4004000F0C6FD81
:1005A00010BD30B50246002000235068E84C2040C2
:1005B0000D790C6844EA0524204350609068E54CAE
:1005C0002040D1E902542C434D7944EA45042043AC
:1005D0009060D06A20F470000C7C641EE4B2234367
:1005E00040EA0350D06230BD0021016001714171C9
:1005F0008160C16001210174704721B1826842F0BD
:100600000102826003E0826822F00102826070478A
:1006100021B1826842F48072826003E0826822F431
:1006200080728260704710B50023CBB21AB1446863
:100630001C43446002E044689C43446010BD8168F0
:1006400041F0080181607047014600208A6802F08D
:1006500008020AB1012000E000207047816841F0E3
:10066000040181607047014600208A6802F004029C
:100670000AB1012000E00020704721B1826842F4F5
:10068000A002826003E0826822F4A00282607047C8
:10069000014600208A6802F480020AB1012000E0CD
:1006A0000020704710B50A4600210023416821F45C
:1006B0006041531E41EA4331416010BD21B142689F
:1006C00042F40062426003E0426822F40062426049
:1006D0007047F0B504460D4600200021092D11DDBC
:1006E000E068A5F10A0606EB4607072606FA07F1B9
:1006F0008843A5F10A0606EB460603FA06F108430D
:10070000E0600CE0206905EB4507072606FA07F1D3
:10071000884305EB450603FA06F108432061072AE2
:100720000FDA606B561E06EB86071F2606FA07F1E6
:100730008843561E06EB860605FA06F108436063F9
:1007400022E00D2A0FDA206BD61F06EB86071F2644
:1007500006FA07F18843D61F06EB860605FA06F16E
:100760000843206310E0E06AA2F10D0606EB86075D
:100770001F2606FA07F18843A2F10D0606EB86064E
:1007800005FA06F10843E062F0BD21B1826842F447
:100790008012826003E0826822F4801282607047D7
:1007A0000146C86C80B2704766484C30006870479C
:1007B00021B1426842F48062426003E0426822F460
:1007C00080624260704721B1426842F480524260C8
:1007D00003E0426822F48052426070470A460021DA
:1007E000816821F4E04111438160704721B1826842
:1007F00042F40042826003E0826822F40042826098
:10080000704721B1826842F40212826003E082687C
:1008100022F4021282607047014600208A6802F4C6
:1008200000120AB1012000E000207047F0B5044634
:100830001546002000220026092911DDE068A1F1FB
:100840000A0707EB470C072707FA0CF29043A1F1C0
:100850000A0707EB470703FA07F21043E0600CE0D2
:10086000206901EB410C072707FA0CF2904301EBDA
:10087000410703FA07F210432061A06BC0F3015651
:10088000EF1C06F1010CA7EB0C0707EB870C1F27E9
:1008900007FA0CF29043EF1C06F1010CA7EB0C07D2
:1008A00007EB870701FA07F21043A063F0BD10B50C
:1008B0000A4600210023816B21F44011531E41EAB6
:1008C0000351816310BD08B5002300930090009B85
:1008D0000B440093009B1A6008BD08B50246002037
:1008E0000090009201F12800009B184400900098AD
:1008F000006880B208BD0A4600214168164B1940C5
:100900001143416070474162826270470A4600218C
:10091000416821F01F0111434160704740B109490E
:100920000831096841F40001064A0832116007E005
:1009300004490831096821F40001024A08321160B3
:10094000704700000024014000280140003C0140A5
:10095000FFFEF0FFFDF7F1FFFFFD3FFF0246002025
:1009600013680B400BB1012000E000207047CA4320
:100970000260704770B502460020002300240B126D
:100980005568CEB205EA060415681D4015B10CB1D4
:10099000012000E0002070BD00220A12D343036052
:1009A00070470000002044490860091D0860091DC7
:1009B0000860091D086041483F49143108607047CC
:1009C00000213D498279002A3AD00A46126803681C
:1009D0009A430B461A600A1D126803689A430B1D5E
:1009E0001A60027911440A6803681A430A60324A9D
:1009F0000832126803689A432F4B08331A601A1D95
:100A0000126803689A432C4B0C331A604279102AFF
:100A10000ED11A1F126803681A43274B08331A6055
:100A20001A1D126803681A43234B0C331A600DE039
:100A30002149427911440A6803681A430A6005E0B3
:100A4000027911440A6803689A430A6070470021DA
:100A5000016001710C2141710021817170471649BB
:100A6000103109680143144A103211607047014681
:100A70000020114A143212680A400AB1012000E035
:100A8000002070470C49143108607047014600206F
:100A90000022094B1B6803EA0102074B14331B6851
:100AA0000B4013B10AB1012000E000207047024959
:100AB000143108607047000000040140FFFF0F0080
:100AC00010B50446CC48844208D10121042000F02E
:100AD0002DFB0021042000F029FB46E0C74884429A
:100AE00008D10121082000F021FB0021082000F09E
:100AF0001DFB3AE0C248844208D10121102000F0D9
:100B000015FB0021102000F011FB2EE0BD488442AF
:100B100008D10121202000F009FB0021202000F055
:100B200005FB22E0B848844208D10121402000F0B2
:100B3000FDFA0021402000F0F9FA16E0B3488442A3
:100B400008D10121802000F0F1FA0021802000F07E
:100B5000EDFA0AE0AE48844207D10121801500F089
:100B6000E5FA0021A01500F0E1FA10BD10B5012151
:100B7000084600F0DBFA0021012000F0D7FA10BD92
:100B80002DE9F04102460025002600200023002424
:100B9000002791F803C00CF00F0591F803C00CF08A
:100BA000100CBCF1000F03D091F802C04CEA05050F
:100BB00091F800C0BCF1000F31D0146800202BE088
:100BC0004FF0010C0CFA00F3B1F800C00CEA030678
:100BD0009E4220D183004FF00F0C0CFA03F7BC4368
:100BE00005FA03FC4CEA040491F803C0BCF1280F99
:100BF00006D14FF0010C0CFA00FCC2F814C00AE058
:100C000091F803C0BCF1480F05D14FF0010C0CFA6C
:100C100000FCC2F810C0401C0828D1D31460B1F801
:100C200000C0BCF1FF0F34DD546800202EE000F15D
:100C3000080C4FF0010808FA0CF3B1F800C00CEAF8
:100C400003069E4221D183004FF00F0C0CFA03F7EC
:100C5000BC4305FA03FC4CEA040491F803C0BCF160
:100C6000280F05D100F1080C08FA0CF8C2F814801E
:100C700091F803C0BCF1480F07D100F1080C4FF008
:100C8000010808FA0CF8C2F81080401C0828CED3DE
:100C90005460BDE8F0814FF6FF7101800221817040
:100CA0000421C17070470246002093680B400BB1CD
:100CB000012000E0002070470146886880B270473C
:100CC00002460020D3680B400BB1012000E0002059
:100CD00070470146C86880B2704701617047416142
:100CE00070470AB1016100E041617047C16070471F
:100CF0004FF480320A438261816182618269826934
:100D0000704702460020434B18684FF68073184026
:100D100040EA021008433F4B186070473E49C861E3
:100D20007047F0B50A46002300240021002500F09A
:100D30000046B6F1004F02D1364EF16901E0354E62
:100D40007168C0F3034583B200F44016B6F5401F46
:100D500008D121F070612F4E766826F070662D4F15
:100D60007E6012E000F48016B6F5801F06D10326DF
:100D700006FA05F4A14341F0706106E0460D360124
:100D800003FA06F6B14341F0706122B1460D360117
:100D900003FA06F6314300F00046B6F1004F02D1E7
:100DA0001C4EF16101E01B4E7160F0BD30B50022B8
:100DB0008B071C0F0F2303FA04F2164B08338C1019
:100DC00053F824309343134C08348D1044F82530E5
:100DD00023468C1053F824308C07240F00FA04F4B7
:100DE00023430C4C08348D1044F8253030BD0A499B
:100DF000DC3108607047000000080140000C014031
:100E0000001001400014014000180140001C014086
:100E1000002001400000014000002042DF4800683F
:100E200040F00100DD49086008464068DC490840A0
:100E3000DA49486008460068DA490840D74908603E
:100E40000846006820F4802008600846406820F4C6
:100E5000FE0048604FF41F0088607047CF49096862
:100E600021F48031CD4A11601146096821F48021B6
:100E70001160B0F5803F03D0B0F5802F0ED106E0B1
:100E8000C649096841F48031C44A116007E0C3498A
:100E9000096841F4A021C14A116000E000BF00BF11
:100EA000704710B501460022002300204A11012A94
:100EB00002D1BA4C236806E0022A02D1B74C236A59
:100EC00001E0B64C636A01F01F02012494401C400B
:100ED0000CB1012000E0002010BD38B500200090CA
:100EE0000024002500BF3120FFF7DBFF05460098F6
:100EF000401C00900098B0F5A06F01D0002DF2D0FA
:100F00003120FFF7CEFF08B1012400E00024204685
:100F100038BD01460020A14A106820F0F80040EAE0
:100F2000C10010607047A049086070470246002069
:100F30009A4B586820F47C1042EA01031843974BFF
:100F40005860704798490866704701460020934AE8
:100F5000506820F003000843506070478F48406895
:100F600000F00C007047014600208C4A506820F0C9
:100F7000F00008435060704701460020874A5068DF
:100F800020F4E06008435060704701460020834A27
:100F9000506820F4605040EAC1005060704729B1A9
:100FA0007E4A527A02437D4B5A7204E07B4A527A5F
:100FB00082437A4B5A7270477B49D8310860704738
:100FC00001460020754A506820F4404008435060B4
:100FD00070470021714A20321170704A82F8201047
:100FE000012802D004280AD104E001216B4A2032F2
:100FF000117005E00521694A2032117000E000BF40
:1010000000BF70476949086070476449096A014335
:10101000624A11627047654944390860704730B5CB
:1010200000210022002400235C4D6D6805F00C01B6
:1010300021B1042905D0082923D105E05C4D0560C4
:1010400022E05B4D05601FE0544D6D6805F47012A1
:10105000524D6D6805F48034022505EB92421CB9AF
:10106000544D554305600BE04C4D6D6805F400355B
:101070001DB1504D5543056002E04D4D554305608F
:1010800002E04B4D056000BF00BF444D6D6805F0A8
:10109000F0010909484D6B5C0568DD4045603F4D36
:1010A0006D6805F4E061090A434D6B5C4568DD40FD
:1010B00085603A4D6D6805F46051C90A3E4D6B5C20
:1010C0004568DD40C560354D6D6805F44041890BCC
:1010D0003A4D6B5CC568B5FBF3F5056130BD29B1D0
:1010E0002E4A526902432D4B5A6104E02B4A526941
:1010F00082432A4B5A61704729B1284A92690243B8
:10110000264B9A6104E0254A92698243234B9A61F7
:10111000704729B1214AD2690243204BDA6104E0C9
:101120001E4AD26982431D4BDA61704729B11B4ABE
:10113000D2680243194BDA6004E0184AD26882434D
:10114000164BDA60704729B1144A12690243134BF7
:101150001A6104E0114A12698243104B1A61704708
:1011600012494039086070470F49C86470470B49FD
:10117000C87170470948406A40F08070074948626A
:10118000704701460020054A92680A400AB10120D2
:1011900000E000207047014988727047001002404B
:1011A0000000FFF8FFFFF6FE0000424280044242CA
:1011B00000127A0000093D0060000020700000204D
:1011C00010B50446FE48844208D10121C014FFF73F
:1011D000ADFF0021E014FFF7A9FFC4E0B4F1804F98
:1011E00008D101210846FFF7AEFF00210120FFF7DB
:1011F000AAFFB8E0F348844208D101210220FFF79A
:10120000A2FF00210220FFF79EFFACE0EE488442DF
:1012100008D101210420FFF796FF00210420FFF7E9
:1012200092FFA0E0E948844208D101210820FFF79D
:101230008AFF00210820FFF786FF94E0E4488442FB
:1012400008D101211020FFF77EFF00211020FFF7B9
:101250007AFF88E0DF48844208D101212020FFF78F
:1012600072FF00212020FFF76EFF7CE0DA48844205
:1012700008D101214014FFF759FF00216014FFF746
:1012800055FF70E0D548844209D10121C804FFF719
:101290004DFF00214FF40020FFF748FF63E0D048E6
:1012A000844209D101210805FFF740FF00214FF4D6
:1012B0008010FFF73BFF56E0CA48844209D1012164
:1012C0004805FFF733FF00214FF40010FFF72EFF12
:1012D00049E0C548844208D101214020FFF733FF8F
:1012E00000214020FFF72FFF3DE0C048844208D195
:1012F00001218020FFF727FF00218020FFF723FF37
:1013000031E0BB48844208D101218015FFF71BFF63
:101310000021A015FFF717FF25E0B648844209D148
:1013200001210804FFF702FF00214FF48030FFF78E
:10133000FDFE18E0B048844209D101214804FFF7BE
:10134000F5FE00214FF40030FFF7F0FE0BE0AB4854
:10135000844208D101218804FFF7E8FE00214FF400
:101360008020FFF7E3FE10BD00220288944B9842D4
:101370000ED0994B98420BD0B0F1804F08D0914BD2
:10138000984205D0904B984202D0904B984204D19D
:101390004FF68F731A404B881A438D4B984207D0F3
:1013A0008C4B984204D04FF6FF431A40CB881A4327
:1013B00002808B8883850B880385814B98420BD0F4
:1013C000854B984208D08B4B984205D08A4B984267
:1013D00002D08A4B984201D10B7A03860123838283
:1013E000704770B5002400220023058C4FF6FE766E
:1013F00035400584028C8388048B4FF68F752C4012
:10140000B51E2C400D882C43751E2A400D892A4399
:101410004D882A436A4DA8420BD06F4DA84208D090
:10142000744DA84205D0744DA84202D0734DA84215
:1014300013D14FF6F7752A404D892A434FF6FB75B5
:101440002A408D882A434FF6FF652B404FF6FF5503
:101450002B408D892B43CD892B4383800483CD88FA
:101460008586028470BD70B5002400220023058C9F
:101470004FF6EF7635400584028C8388048B48F65E
:10148000FF752C404FF6FF452C400D884FF6FF7638
:1014900006EA05252C434FF6DF752A400D8906EA3A
:1014A00005152A434D8806EA05152A43444DA842EE
:1014B00002D0494DA8421DD14FF67F752A404D8973
:1014C0004FF6FF7606EA05152A434FF6BF752A4008
:1014D0008D8806EA05152A434FF6FF352B404FF25B
:1014E000FF752B408D8906EA85052B43CD8906EAD9
:1014F00085052B4383800483CD880587028470BDD6
:1015000070B5002400220023058C4FF6FF6635409D
:101510000584028C8388848B4FF68F752C404FF6A0
:10152000FC752C400D882C434FF6FF552A400D8941
:101530004FF6FF7606EA05252A434D8806EA05257B
:101540002A431F4DA84202D0234DA8421DD14FF27D
:10155000FF752A404D894FF6FF7606EA05252A4396
:101560004FF6FF352A408D8806EA05252A434EF6B8
:10157000FF752B404DF6FF752B408D8906EA05154A
:101580002B43CD8906EA05152B4383808483CD88C0
:101590008587028470BD70B5002200230024058C6D
:1015A0004EF6FF7635400584038C8488828B48F69E
:1015B000FF752A404FF6FF452A400D8820E00000C5
:1015C000002C01400004004000080040000C0040D6
:1015D000001000400014004000340140004C014065
:1015E000005001400054014000180040001C004021
:1015F00000200040004001400044014000480140FC
:101600004FF6FF7606EA05252A434DF6FF752B4077
:101610000D8906EA05352B434D8806EA05352B432F
:10162000FA4DA84202D0FA4DA84208D14BF6FF75F8
:101630002C408D894FF6FF7606EA85152C43848071
:101640008283CD88A0F84050038470BD828B4FF216
:10165000FF331A408283828B4FF6FF7303EA012324
:101660001A4382837047F0B50C46154600220021CC
:101670000026078C4EF6FF7C07EA0C070784828B56
:10168000018C4FF6FF7707EA043640F6FF473A40F1
:101690004FF6FF7707EA05273A434FF6FF7707EA49
:1016A00003373A43D94FB8420ED0D94FB8420BD086
:1016B000B0F1804F08D0D74FB84205D0D64FB842CE
:1016C00002D0D64FB84206D14DF6FF77394046F4E6
:1016D0008057394305E047F6FF57394044F48057B7
:1016E000394382830184F0BD828B4FF6F3731A4035
:1016F0008283828B0A4382837047F0B50C4615467D
:10170000002200210026078C4FF6FF6C07EA0C0729
:101710000784828B018C4FF6FF7707EA04264FF689
:101720000C773A404FF6FF7707EA03172F433A4307
:10173000B64FB8420ED0B64FB8420BD0B0F1804F82
:1017400008D0B44FB84205D0B34FB84202D0B34F1F
:10175000B84206D14FF6FF57394046F480773943F7
:1017600005E04FF2FF57394044F4807739438283D4
:101770000184F0BD028B4FF2FF331A400283028BCB
:101780004FF6FF7303EA01231A4302837047F0B553
:101790000C461546002200210026078C4FF6EF7CF0
:1017A00007EA0C070784028B018C4FF6FF7707EAE4
:1017B000041640F6FF473A404FF6FF7707EA033733
:1017C0003A434FF6FF7707EA05273A438F4FB8426F
:1017D0000ED08F4FB8420BD0B0F1804F08D08D4F54
:1017E000B84205D08C4FB84202D08C4FB84206D1D7
:1017F0004FF6DF77394046F01007394305E04FF6E2
:101800005F77394044F01007394302830184F0BD0B
:10181000028B4FF6F3731A400283028B0A43028352
:101820007047F0B50C46154600220021068C4FF695
:10183000FE773E400684028B018C4FF60C763240D8
:101840007E1C06EA03162E433243704EB0420ED081
:101850006F4EB0420BD0B0F1804F08D06D4EB04209
:1018600005D06D4EB04202D06C4EB04206D14FF65C
:10187000FD76314044F00106314305E04FF6F57640
:10188000314044F00106314302830184F0BD70B55C
:1018900005460C465D4885420ED05D4885420BD01A
:1018A000B5F1804F08D05B48854205D05A48854243
:1018B00002D05A48854200D100E000BF208850B9CC
:1018C0002389A28861882846FFF7ABFFE188284674
:1018D000FFF79EFF25E0208804280AD12389A288EB
:1018E00061882846FFF753FFE1882846FFF742FF4B
:1018F00017E0208808280AD12389A2886188284611
:10190000FFF7FBFEE1882846FFF7EEFE09E023899A
:10191000A28861882846FFF7A6FEE1882846FFF7DF
:1019200095FE70BD2DE9F04105460C4600260127C5
:10193000608808B9022600E00026A088012801D1AD
:10194000022700E001272088A0B92389A2886188A6
:101950002846FFF766FFE1882846FFF759FF2389ED
:101960003A4631462846FFF712FFE1882846FFF73E
:1019700001FF13E02389A28861882846FFF707FF4B
:10198000E1882846FFF7F6FE23893A463146284685
:10199000FFF747FFE1882846FFF73AFFBDE8F081EF
:1019A0000A884B881A438B881A43CB881A430B89C1
:1019B0001A434B891A438B891A43A0F84420704775
:1019C0004FF6FF71818000210180C180418001724A
:1019D00070470021018041808180C1800181418167
:1019E0008181C18170470021018041800121818076
:1019F0000021C180018170470021018041808180E8
:101A0000C18001814181818170470000002C01402B
:101A1000003401400004004000080040000C004079
:101A200021B1028842F00102028004E002884FF6F0
:101A3000FE731A400280704731B1B0F8442042F47E
:101A40000042A0F8442005E0B0F84420C2F30E02A2
:101A5000A0F8442070471AB183890B43838102E0C8
:101A600083898B43838170478182704741EA0203F7
:101A7000A0F8483070471AB183890B43838102E094
:101A800083898B438381704701894FF6F872114037
:101A9000018170470A46002101894FF68F73194072
:101AA00011430181704730B504460D462946204652
:101AB000FFF7F0FF208940F00700208130BD2DE9BD
:101AC000F04104460D4616461F46602D06D13B46A2
:101AD000012231462046FFF75AFE05E03B4601222F
:101AE00031462046FFF79DFE29462046FFF7D2FFEC
:101AF000208940F007002081BDE8F08130B50C4618
:101B000000210189C9B24FF6FF7505EA0325154387
:101B100025432943018130BD2DE9F04105460E469C
:101B200017469846002443463A4631462846FFF772
:101B3000E5FF2C894FF6F870044044F007044FF697
:101B40008F70044044F070042C81BDE8F081F0B542
:101B500004460D4616461F463B4632462946204659
:101B6000FFF7CCFF208940F480402081F0BD018543
:101B7000828270470A46002101884FF68F73194010
:101B8000114301807047F0B50C4615461E460021F2
:101B9000002200230189028B038C4FF6F87739402D
:101BA00021434FF6FC473A4040F201173A434FF6C3
:101BB000DD773B404FF6FF7707EA06172F433B439D
:101BC000018102830384F0BD0A460021018B4FF698
:101BD0008F7319401143018370470A460021018B1E
:101BE00048F6FF7319404FF6FF7303EA02231943C7
:101BF000018370470A460021818B4FF68F7319408D
:101C00001143818370470A460021818B48F6FF7398
:101C100019404FF6FF7303EA02231943818370478B
:101C200021B1028842F08002028004E002884FF66F
:101C30007F731A400280704721B1828842F004020B
:101C4000828004E082884FF6FB731A4082807047DE
:101C500021B1828842F00802828004E082884FF637
:101C6000F7731A408280704721B1828842F00102E6
:101C7000828004E082884FF6FE731A4082807047AB
:101C80000A460021018B4FF6F77319401143018377
:101C900070470A460021018B4FF2FF7319404FF63F
:101CA000FF7303EA02231943018370470A460021A8
:101CB000818B4FF6F77319401143818370470A46B1
:101CC0000021818B4FF2FF7319404FF6FF7303EA37
:101CD00002231943818370470A460021018B4FF686
:101CE000FB7319401143018370470A460021018BA1
:101CF0004FF6FF3319404FF6FF7303EA02231943EF
:101D0000018370470A460021818B4FF6FB7319400F
:101D10001143818370470A460021818B4FF6FF33C0
:101D200019404FF6FF7303EA02231943818370477A
:101D30000A460021018B4FF67F731940114301833E
:101D400070470A460021018BC1F30E014FF6FF7365
:101D500003EA02231943018370470A460021818B5D
:101D60004FF67F7319401143818370470A46002163
:101D7000818BC1F30E014FF6FF7303EA022319436F
:101D8000818370470A460021018C4FF6FD7319408C
:101D90001143018470470A460021018C4FF6F77306
:101DA00019401143018470470A460021018C4FF607
:101DB000DF7319404FF6FF7303EA021319430184DE
:101DC00070470A460021018C4FF67F7319404FF689
:101DD000FF7303EA02131943018470470A46002186
:101DE000018C4FF6FF5319404FF6FF7303EA0223AD
:101DF0001943018470470A460021018C4FF2FF739A
:101E000019404FF6FF7303EA022319430184704718
:101E10000A460021018C4DF6FF7319404FF6FF73FF
:101E200003EA023319430184704730B500230124CB
:101E30008C40A3B2048C9C430484048C02FA01F508
:101E4000ADB22C43048430BD30B5002304248C4053
:101E5000A3B2048C9C430484048C02FA01F5ADB255
:101E60002C43048430BD70B503460020002418467E
:101E7000183001258D40ACB21D8CA5431D8409B1DD
:101E8000082909D100EB6100056825F0700505609F
:101E90000568154305600EE00D1FC5F34E05284487
:101EA000056825F4E045056005684FF6FF7606EA0B
:101EB00002263543056070BD21B1028842F002025E
:101EC000028004E002884FF6FD731A4002807047DA
:101ED00021B1028842F00402028004E002884FF639
:101EE000FB731A400280704721B1828842F0800261
:101EF000828004E082884FF67F731A4082807047A8
:101F000002884FF6F7731A40028002880A43028063
:101F1000704782884FF68F731A40828082880A4306
:101F20008280704702894FF6F8731A400281028955
:101F30000A430281704702894FF67F731A4002817B
:101F400002890A4302817047818470478185704706
:101F5000818670470187704781877047A0F84010DD
:101F6000704702884FF6FF431A40028002880A43F6
:101F7000028070470146888E70470146088F70477F
:101F80000146888F70470146B1F84000704701460E
:101F9000888C70470146088D704702460020138ADE
:101FA0000B400BB1012000E000207047CA430282C1
:101FB000704730B50246002000230024158A05EA48
:101FC0000103958905EA010413B10CB1012000E079
:101FD000002030BDCA4302827047000010B504469D
:101FE000FB48844209D101218803FFF79FF80021B3
:101FF0004FF48040FFF79AF832E0F648844209D166
:1020000001214804FFF79FF800214FF40030FFF74B
:102010009AF825E0F048844209D101218804FFF7AD
:1020200092F800214FF48020FFF78DF818E0EB487C
:10203000844209D10121C804FFF785F800214FF43B
:102040000020FFF780F80BE0E548844208D1012129
:102050000805FFF778F800214FF48010FFF773F8B8
:1020600010BD2DE9F04786B005460E460024A24675
:1020700000BFA1460027B08900B100BF2F462C8ABF
:102080004CF6FF700440F08804432C82AC894EF675
:10209000F3100440B0883189084371890843044330
:1020A000AC81AC8A4FF6FF400440B0890443AC8257
:1020B00001A8FEF7B4FFC648874202D1DDF810A0A0
:1020C00001E0DDF80CA0A88900F4004040B10AEB63
:1020D000CA0000EB0A1031684900B0FBF1F807E0D4
:1020E0000AEBCA0000EB0A1031688900B0FBF1F876
:1020F0006420B8FBF0F004012009642101FB108981
:10210000A88900F4004040B1322000EBC900B0FBC8
:10211000F1F000F00700044308E0322000EB091062
:102120006421B0FBF1F000F00F0004432C8106B0F5
:10213000BDE8F0874FF41651016000218180C18015
:1021400001810C21418100218181704710B5024637
:102150000020108A4FF2FF0318400B884C8823435D
:102160008C882343CC8823431843108210BD002160
:10217000018041808180C180704721B1828942F411
:102180000052828104E082894DF6FF731A408281F9
:102190007047F0B50346002400260025002040F6D5
:1021A0006A17B94200D100BF1846C1F3421401F0CA
:1021B0001F06012707FA06F5012C01D10C3004E0B7
:1021C000022C01D1103000E014301AB107682F43FF
:1021D000076002E00768AF430760F0BD1AB1838A69
:1021E0000B43838202E0838A8B4383827047028A97
:1021F0004FF6F0731A400282028A0A430282704745
:1022000082894FF2FF731A40828182890A43828158
:10221000704721B1828942F00202828104E0828902
:102220004FF6FD731A4082817047028A4FF6DF73C2
:102230001A400282028A0A430282704721B1028A4E
:1022400042F48042028204E0028A4BF6FF731A4095
:1022500002827047C1F30802828070470146888875
:10226000C0F308007047818941F001018181704706
:10227000028BD2B20283028B42EA012202837047B0
:10228000028B02F47F420283028B0A43028370476F
:1022900021B1828A42F02002828204E0828A4FF6D3
:1022A000DF731A408282704721B1828A42F01002A5
:1022B000828204E0828A4FF6EF731A40828270476E
:1022C00021B1828A42F00802828204E0828A4FF6BB
:1022D000F7731A408282704721B1828942F400422A
:1022E000828103E08289C2F30E028281704721B1AC
:1022F000828A42F40062828204E0828A4FF2FF7393
:102300001A4082827047828A4FF6FB731A4082829B
:10231000828A0A438282704721B1828A42F0020295
:10232000828204E0828A4FF6FD731A4082827047EF
:1023300002460020B1F5007F00D100BF13880B409A
:102340000BB1012000E00020704701F40072B2F5EB
:10235000007F00D100BFCA430280704770B50246BB
:10236000002400230025002040F66A16B14200D167
:1023700000BFC1F3421501F01F03012606FA03F363
:10238000012D02D19689334006E0022D02D1168A32
:10239000334001E0968A33400C12012606FA04F419
:1023A0001688344013B10CB1012000E0002070BD4C
:1023B00010B50022002340F66A14A14200D100BFEC
:1023C0000A1201249440A3B2DC43048010BD000033
:1023D000003801400044004000480040004C0040EC
:1023E0000050004010B56FF00400FEF794F82E483E
:1023F00000682E49B0FBF1F02D49087008460078BE
:1024000000EB4001C1EBC0104FF6FF7101EAC000C4
:102410002849088010BD0146254A12784A434FF0EA
:10242000E0235A6100229A611A46126942F00102C1
:102430001A6100BF4FF0E022106900F001021AB1EA
:1024400000F48032002AF5D04FF0E022126922F029
:1024500001024FF0E0231A6100229A6170470146A1
:10246000144A12884A434FF0E0235A6100229A61CD
:102470001A46126942F001021A6100BF4FF0E022D1
:10248000106900F001021AB100F48032002AF5D080
:102490004FF0E022126922F001024FF0E0231A61AE
:1024A00000229A61704700000000002000127A00AC
:1024B0007400002076000020A34A0A400243A34B88
:1024C0001A6070470146072323EA010212029F4B5C
:1024D0001B1D18684FF6FF0318409D4B184310430F
:1024E0009A4B1B1D186070472DE9F041074688463E
:1024F00014461D462846FFF7E5FFC5F1040007FA1C
:1025000000F60F20284100EA0800064306F00F06F7
:10251000E21704EBD2625211920002F1E022D2F8EB
:1025200000212146E31704EBD3635B11A4EB431CAA
:10253000012303FA0CF31A432046E31704EBD36399
:102540005B119B0003F1E023C3F800218148005D8B
:1025500040EA06107F490855BDE8F08170B5044691
:102560000B46CE1701EB9676C6F38700CE1701EB2C
:102570009676B610A1EB8606B606350E764B9B69AD
:1025800043F00103744EB3614FEAB63353F8203081
:102590000F26AE40B343714E46F82030334653F811
:1025A000203004FA05F61E436C4B43F820606C4B58
:1025B0001B6801268E403343694E336002F00103ED
:1025C00043B1674B0C331B6801268E403343644E86
:1025D0000C36336002F0020343B1614B08331E68CE
:1025E00001238B401E435E4B08331E6070BD00B557
:1025F000002059490861C8601420486100208861A2
:10260000C8610846006840F001000860084640685C
:1026100054490840504948600846006852490840FB
:102620004D4908600846006820F48020086008468C
:10263000406820F4FE0048600020886000214FF0D0
:102640000060FFF739FF00BD10B540480830006852
:1026500040F004003D49083108603F48C06940F03F
:1026600080503D49C8614148406840F480703F490E
:1026700048600846006840F00400086008460068AA
:1026800040F002000860FDF7A3FD10BD3048001DBA
:102690002E49091D08607047014649062E4A926975
:1026A00042F001022C4B9A612C4A083A526822F0FF
:1026B000E0622A4B083B5A601A4652680A435A6045
:1026C000704730B504460025FFF791FF22480068A7
:1026D00040F480302049086000BF1F480068400C6B
:1026E0000028FAD04FF480601B494860A01EC4B295
:1026F0000846406840EA844048600846406840F424
:10270000803048601A48006840F03200184908607C
:102710001148006840F080700F49086000BF0E4803
:102720000068400E0028FAD00B48406840F00200D4
:102730000949486005E008484068C0F3870505F08E
:102740000305022DF7D130BD80FFFF1F08ED00E02B
:102750000000FA0500E400E000100240080001401B
:10276000000401400000FFF8FFFFF6FE007000408B
:1027700000200240014600BF704700BF244A128873
:1027800002F04002002AF9D0C2B2214B1B1D1A8070
:10279000704710B586B00446012144F20400FEF7EC
:1027A000ABFC4FF40070ADF8140003208DF8160058
:1027B00018208DF8170005A91648FEF7E1F94FF427
:1027C0008060ADF8140004208DF8170005A91148A9
:1027D000FEF7D6F901940020ADF80800ADF80A0024
:1027E000ADF80C00ADF810000C20ADF80E0001A9FA
:1027F0000748FFF736FC002240F225510448FFF756
:10280000C8FC01210248FFF7B8FC06B010BD00006B
:10281000003801400008014008B501211020FEF7F2
:102820006BFC4FF40050ADF8000010208DF8030051
:1028300003208DF8020069460C48FEF7A1F908BD97
:1028400018B900210A4A11600FE00A490968491CB9
:10285000084A1160814208D105490968C943064AFE
:10286000C2F8B4110021034A116070470010014002
:10287000B40122427C0000200000224208B5012160
:102880000820FEF739FC2020ADF8000048208DF824
:10289000030069464B48FEF773F908BD01464A48F4
:1028A000006828B949480088401C484A108002E066
:1028B0000020464A10804448006828B944480078FF
:1028C00010B90120424A107042480078B0B940481F
:1028D0000078012807D140480078401C3E4A10701B
:1028E00001203C4A10703C480078022806D10020A4
:1028F000394A1070394A1080022070473248006807
:10290000012804D10020324A1070324A1070324837
:10291000007801281CD131480088401C2F4A1080C3
:102920001046008888420ADD28480088884206DA76
:102930000020294A1070294A10800120DDE7234831
:102940000088884204DD0020234A1070234A10804A
:102950000020D2E72248007838B11B48006820B92F
:1029600000201F490870012070471748006801289F
:1029700001D11B4908700020F6E71A48008840B9C9
:102980001148006828B918480088401C164908807A
:1029900002E000201449088013480088C82807DD99
:1029A00001201049088000200F490880012070474D
:1029B0000C480088012802D100200A490880002024
:1029C000F5E70000000C0140148121428600002040
:1029D0008000002081000020820000208400002070
:1029E000880000208C0000208A00002010B50A46D4
:1029F0001AB10123EB4C236002E00023E94C236071
:102A0000002114E00023E84C236000F080031BB198
:102A10000123241F236003E00023E34C241F2360D1
:102A20000123E14C23604306180E4B1CD9B2082940
:102A3000E8DB0123DB4C236010BD30B500241CE033
:102A400004F1B001C8B20021FFF7D0FF0021084611
:102A5000FFF7CCFF00211020FFF7C8FF002508E09A
:102A6000D24901EBC501085D0121FFF7BFFF681CDA
:102A7000C5B2802DF4DB601CC4B2082CE0DB30BD95
:102A800000B500218D20FFF7B1FF00211420FFF7D2
:102A9000ADFF0021AF20FFF7A9FF00BD00B5002169
:102AA0008D20FFF7A3FF00211020FFF79FFF0021DB
:102AB000AE20FFF79BFF00BD30B500240CE00025E1
:102AC00006E00020B94901EBC5010855681CC5B2F4
:102AD000802DF6DB601CC4B2082CF0DBFFF7ADFFE5
:102AE00030BDF0B5144600267F2801DC3F2900DD0B
:102AF000F0BD0B46CF1701EB5777FF10C7F1070763
:102B0000FAB2CF1701EB5777FF10A1EBC707FDB261
:102B1000C5F107070123BB40DEB24CB1A34B03EB69
:102B2000C0039B5C3343A14F07EBC007BB5408E0D5
:102B30009E4B03EBC0039B5CB3439C4F07EBC0076A
:102B4000BB5400BFD4E72DE9F04F80460C46154634
:102B50001E46A346A5F12000C5B200273EE00C2E7C
:102B600007D105EB4500924901EB800010F8079072
:102B700004E0904800EB051010F807904FF0000AB1
:102B800026E009F0800028B121464046099AFFF767
:102B9000A8FF09E0099808B9012000E000200246DA
:102BA00021464046FFF79DFF4FEA49604FEA106912
:102BB000601CC4B2A4EB0B00B04205D15C4608F126
:102BC000010000F0FF0806E00AF1010000F0FF0A32
:102BD000BAF1080FD5DB00BF781CC7B2B742BEDB25
:102BE000BDE8F08F10B50246012000E050430B0015
:102BF000A1F10104E1B2F9D110BD2DE9FF4F81B07F
:102C0000074691461E460E9D4FF0000A002439E00B
:102C1000301B401EC1B20A20FFF7E4FFB9FBF0F001
:102C20000A21B0FBF1F201FB1208BAF1000F16D134
:102C3000701EA04213DDB8F1000F0ED10120AB468B
:102C400005EBDB71491001FB04710090C8B22B4603
:102C500020220299FFF777FF12E04FF0010A0120CE
:102C6000AB4605EBDB71491001FB04710090C8B263
:102C700008F13001CAB22B460299FFF764FF00BF8A
:102C8000601CC4B2B442C3DB05B0BDE8F08F78B5B8
:102C900005460E46144618E07A2D03DD002506F1A0
:102CA0001000C6B23A2E04DD002005460646FFF7A6
:102CB00003FF0120009022780C2331462846FFF7BD
:102CC00042FF05F10800C5B2641C20780028E3D15A
:102CD00078BD00B50021AE20FFF788FE0021D52089
:102CE000FFF784FE00215020FFF780FE0021A8207E
:102CF000FFF77CFE00213F20FFF778FE0021D32064
:102D0000FFF774FE00210846FFF770FE0021402007
:102D1000FFF76CFE00218D20FFF768FE00211420D4
:102D2000FFF764FE00212020FFF760FE0021022053
:102D3000FFF75CFE0021A120FFF758FE0021C02014
:102D4000FFF754FE0021DA20FFF750FE0021122089
:102D5000FFF74CFE00218120FFF748FE0021EF2005
:102D6000FFF744FE0021D920FFF740FE0021F120AB
:102D7000FFF73CFE0021DB20FFF738FE002130206A
:102D8000FFF734FE0021A420FFF730FE0021A6202B
:102D9000FFF72CFE0021AF20FFF728FEFFF78CFE87
:102DA00000BD0000BC01214294812142DC010020D1
:102DB000C29E000836A3000800B587B001214FF479
:102DC0000170FEF799F94FF40040FEF7F9F808207A
:102DD000ADF8040000208DF8070001A93648FDF782
:102DE000CFFE3648FDF7B6FB002002908DF80C00B0
:102DF0008DF80D004FF46020049000200590012014
:102E00008DF8180002A92D48FDF7CBFB01212B48B6
:102E1000FDF7F3FB2948FDF712FC00BF2748FDF73B
:102E200013FC0028FAD12548FDF718FC00BF234801
:102E3000FDF719FC0028FAD107B000BD10B5044613
:102E40000723012221461D48FDF743FC01211B48B1
:102E5000FDF713FC00BF02211848FDF77FFD002895
:102E6000F9D01648FDF79CFC10BD2DE9F04F85B058
:102E70000620FFF7E3FF019006F014F94FF06632E9
:102E80000F4BCDE9020106F021F9804600220D4BDF
:102E900006F01CF9064600220B4B06F017F9044613
:102EA00000220A4B05F060FF824606F0B5F8049058
:102EB000049805B0BDE8F08F0008014000240140EF
:102EC00066660A4000002640000059400000B040FD
:102ED00030B585B005460C4601210220FEF719F9F0
:102EE00001210820FEF708F90120ADF81000282084
:102EF0008DF8130003208DF8120004A96648FDF731
:102F00003FFE0220ADF8100010208DF813000320C2
:102F10008DF8120004A96048FDF732FEADF80850A4
:102F2000ADF804400020ADF80A00ADF8060001A994
:102F30005A48FEF719FA08205949088000204880AD
:102F4000012088800020C88008815448FEF79FFC3B
:102F50001D208DF8000001208DF801008DF8020081
:102F60008DF803006846FDF78CFA012209214B48D1
:102F7000FEF771FD01214948FEF752FD05B030BD55
:102F800010B50120474908600F20FFF744FA0020E0
:102F90004549C1F884014548007800F08000E8B157
:102FA0004248007800F03F00414908600846008828
:102FB00000040860084600683E49098808443C4906
:102FC000086008460068AA2148434FF47A71B0FBB4
:102FD000F1F03749086000203449088010BD2F49BE
:102FE000103108883149097801F0800100294ED15B
:102FF00000F00101D1B12D49097801F04001A9B1DA
:103000002A49097801F03F013F290AD12749098857
:1030100041F08001254A11804FF6FF71254A118049
:1030200004E022490988491C204A118000F0080167
:1030300069B31E49097801F0400199B11B4909881B
:1030400041F08001194A118014493C310988194A1C
:10305000118012492031098821F400710F4A203271
:10306000118014E00021114A1180124A11800F4989
:10307000098841F040010D4A11800021074A24329D
:103080001180111F098841F40071121F1180002165
:10309000024A103211807047000C014000040040C9
:1030A000DC05002084812142008021428E00002026
:1030B000380000209000002008B501210820FEF70C
:1030C0001BF84FF47040ADF8000010208DF803009D
:1030D00003208DF8020069462A48FDF751FD08BD1E
:1030E00030B589B005460C46FFF7E6FF0121C8025E
:1030F000FEF702F801210420FDF7FEFF4FF41060F7
:10310000ADF8200018208DF8230003208DF8220050
:1031100008A91D48FDF734FDADF81850ADF814406E
:103120000020ADF81A00ADF8160005A91748FEF703
:103130001BF96020ADF804000120ADF80600002066
:10314000ADF80A00ADF80C0001A91048FEF749F9E6
:1031500001A90E48FEF71FFA01210C48FEF76CFC8E
:1031600008210A48FEF78CFD08210848FEF7A7FD54
:1031700001210648FEF754FD01210448FEF750FCEA
:1031800009B030BD000C014000080140002C014096
:1031900000B587B001210846FDF7BBFF01210420DF
:1031A000FDF7AAFF0320ADF8000004208DF803000E
:1031B00069466148FDF7E4FC04A8FEF701FC002025
:1031C000ADF810004FF6FF70ADF814000020ADF818
:1031D0001600ADF8120004A94FF08040FEF7C4F8C5
:1031E00000231A4603214FF08040FEF7CCFC01A8D3
:1031F000FEF7F9FB0A20ADF80C0001A94007FEF725
:1032000046FB01218807FEF7D1FE012211469007F7
:10321000FEF721FC00214FF08040FEF795FE0121D2
:103220008807FEF7FDFB07B000BD00B587B00121A0
:103230000420FDF76EFF01210820FDF75DFFC0208F
:10324000ADF8000004208DF8030069463B48FDF707
:1032500097FC04A8FEF7B4FB0020ADF810004FF671
:10326000FF70ADF814000020ADF81600ADF81200A4
:1032700004A93348FEF778F800231A4603213048A2
:10328000FEF781FC01A8FEF7AEFB0A20ADF80C00AA
:1032900001A92B48FEF7FBFA01212948FEF786FE1B
:1032A000012211462648FEF7D6FB00212448FEF7EE
:1032B0004BFE01212248FEF7B3FB07B000BD0146DB
:1032C000022904D003290BD0042919D10FE04FF0B3
:1032D0008042928C10B200224FF080439A8411E019
:1032E000184A128810B20022164B1A800AE0144ABB
:1032F0002432128810B20022114B24331A8001E0CC
:10330000002000BF00BF70470D48103000880C48F7
:103310001030008820F00100094910310880704702
:103320004FF08040008A4FF08040008A20F001007A
:103330004FF080410882704700080140000C0140B6
:10334000000800402404004008B501210820FDF7D2
:10335000D3FE4FF44070ADF8000010208DF803004C
:1033600003208DF802006946F748FDF709FC08BD07
:1033700010B5F548001D006820F0F000F249091D65
:1033800008600846006840F0300008600120EF49FE
:103390000860EF48D0F8240108B9002010BD0120D2
:1033A000EA49091F0860FFF736F80020E849C1F82C
:1033B000A401E6488038006808B10020EEE701204B
:1033C000FFF729F80020E149091F08600120E5E71F
:1033D00010B5DD48001D006820F0F000DA49091D35
:1033E00008600846006840F0300008600020D749B7
:1033F000091F0860D649C1F8A4010120FFF70BF8A6
:103400000120D249091F0860D149C1F8A401FFF782
:1034100002F810BD10B50024CB48001D006820F054
:10342000F000C949091D08600846006840F08000A6
:1034300008600120C5490860FEF7EDFF0120C4497E
:10344000C1F8A001FEF7E7FF0AE0601CC4B2322C0D
:1034500003DDFFF7BDFF002010BD0120FEF7DBFFFD
:10346000BA48803800680028EFD1B849091F0860C1
:103470000120F1E710B50020B449091F0860B248E7
:10348000001D006820F0F000AF49091D08600846E3
:10349000006840F0300008600020AD49C1F8A40188
:1034A0000120FEF7B8FF0120A849091F0860FEF7B8
:1034B000B2FF0020A649C1F8A00110BD10B5002040
:1034C000A249091F0860A048001D006820F0F00014
:1034D0009D49091D08600846006840F030000860FA
:1034E00001209B49C1F8A401FEF795FF01209749EF
:1034F000091F0860FEF78FFF00209549C1F8A00161
:1035000010BD70B504469048001D006820F0F00022
:103510008D49091D08600846006840F030000860C9
:1035200000208A49091F0860002516E0E009874944
:1035300008606006040E0120FEF76DFF012084493B
:10354000C1F8A001FEF767FF00208049091F08604D
:103550000120FEF760FF681CC5B2082DE6DB70BDD8
:103560002DE9F04105460E4617469846FFF700FF45
:1035700010B90120BDE8F0816906080EFFF7C1FF10
:10358000FFF748FF18B9FFF723FF0120F2E73046A5
:10359000FFF7B7FFFFF73EFF00240BE018F8040029
:1035A000FFF7AFFFFFF736FF18B9FFF711FF002055
:1035B000E0E7641CBC42F1DBFFF70AFF0020D9E71B
:1035C00070B5054600246048001D006820F0F0003A
:1035D0005D49091D08600846006840F080000860E9
:1035E000002617E000205949091F08600220FEF755
:1035F00012FF01205649C1F8A0016006040E53488D
:103600008038006808B1601CC4B20220FEF703FFD6
:10361000701CC6B2082EE5DB15B1FFF72BFF01E0E9
:10362000FFF74CFF204670BD2DE9F04106460F46DE
:1036300014461D46FFF79CFE10B90120BDE8F0813D
:103640007106080EFFF75DFFFFF7E4FE18B9FFF7FC
:10365000BFFE0120F2E73846FFF753FFFFF7DAFE1F
:10366000FFF786FE012101EB4601C8B2FFF749FFD3
:10367000FFF7D0FE0DE0012C04D10020FFF7A0FFE2
:10368000287003E00120FFF79BFF28706D1C601E6F
:10369000C4B2002CEFD1FFF79BFE0020CEE770B53F
:1036A00005460E460024FFF763FE2846FFF729FF74
:1036B000641CFFF7AFFE3046FFF723FF641CFFF7E3
:1036C000A9FEFFF755FE691CC8B2FFF71AFF641C7C
:1036D000FFF7A0FE0020FFF773FF0446FFF778FE18
:1036E000204670BD2DE9F0410746884615461E4626
:1036F0000024FFF73DFE3846FFF703FFFFF78AFE81
:103700004046FFF7FEFEFFF785FEFFF731FE791C0E
:10371000C8B2FFF7F6FEFFF77DFE00BF0DE0681EA2
:10372000A04204D00120FFF74BFF305503E00020FA
:10373000FFF746FF3055601CC4B2AC42EFDBFFF729
:1037400047FE2046BDE8F081000C0140A4812142E3
:10375000008021422DE9F04180460D4616461F4665
:103760000024FFF705FE4046FFF7CBFEFFF752FEB1
:103770002846FFF7C6FEFFF74DFE00BF06E0385DA6
:10378000FFF7BFFEFFF746FE601CC4B2B442F6DB93
:10379000FFF71EFE0120BDE8F08170B505460E461C
:1037A000144631462846FFF77AFF2070012070BD8D
:1037B00037B504460D4602AB012229462046FFF7E5
:1037C000C9FF3EBD2DE9F8430746884614461D460D
:1037D000089E6A4641463846FFF7DFFF28B3601C63
:1037E000FF2101FA00F0C4F108012944491EFF221B
:1037F0000A41104300F0FF09C5F1080006FA00F085
:10380000C6B2C4F1070006419DF8000000EA0900B5
:1038100000909DF80000304300909DF80020414644
:103820003846FFF7C5FFBDE8F8830020FBE7F8B591
:1038300006460F4614461D466A4639463046FFF78F
:10384000ACFF2DB10120A0409DF80010084305E019
:103850000120A0409DF8001021EA0000C0B20090B5
:103860009DF8002039463046FFF7A2FFF8BD000062
:1038700010B586B0044601210820FDF73DFC01216A
:103880008804FDF746FC4FF48060ADF81400032077
:103890008DF8160018208DF8170005A96348FDF76C
:1038A0006FF94FF40060ADF8140004208DF8170094
:1038B00005A95E48FDF764F927208DF80000002077
:1038C0008DF8010001208DF802008DF80300684694
:1038D000FCF7D7FD01940020ADF80800ADF80A0010
:1038E000ADF80C00ADF810000C20ADF80E0001A9E9
:1038F0004F48FEF7B6FB012240F225514C48FEF737
:1039000048FC01214A48FEF738FC06B010BD10B54E
:1039100040F225514648FEF721FD002827D04448B3
:10392000FEF79CFC4349086008460078424908704D
:1039300040480068592802D10220404908703D489B
:103940000068582802D101203C49087039480068B5
:103950000A286ADD374800685A2809D1002038490A
:1039600008703849087038490870384908705CE0B8
:1039700030480068412806D10120314908700020F4
:103980003049087051E02B480068452806D10020D6
:103990002B49087001202B49087046E02548006833
:1039A000422807D023480068432803D021480068F4
:1039B000442806D1002024490870012023490870BA
:1039C00033E01C480068462807D01A48006847289A
:1039D00003D018480068482806D101201A49087009
:1039E00000201A49087020E012480068462807D0D5
:1039F00010480068472803D00E4800685B2808D1AB
:103A00001348006808B9012000E000201049086050
:103A10000BE000200A4908700A4908700A4908703A
:103A20000A49087001200A49086010BD000C0140D5
:103A30000048004098000020940000201900002059
:103A4000150000201600002017000020180000209C
:103A5000B40122421FB501210846FDF74DFB0121AB
:103A60000420FDF749FB4FF48050ADF80C004820CE
:103A70008DF80F0003A91248FDF782F80C210020F1
:103A8000FDF794F94FF48050019000208DF8080064
:103A90000C208DF8090001208DF80A0001A8FCF720
:103AA0008FFF28208DF8000002208DF801000120F2
:103AB0008DF802008DF803006846FCF7E2FC1FBD9C
:103AC000000801400146002901DA484200E00846AA
:103AD000704700B503460A46002B07DD0120FE496A
:103AE00008600020FD49C1F8B00106E00020FA4955
:103AF00008600120F949C1F8B0011846FFF7E2FF5C
:103B0000F7490880002A08DD0120F34908310860E0
:103B10000020F249C1F8B80107E00020EE49083161
:103B200008600120ED49C1F8B8011046FFF7CAFF4F
:103B3000EB490C39088000BD70B506460D46E949D1
:103B4000304605F095FF0CD3E749304606F090F873
:103B500007D3E6480078012803D040F2564085425A
:103B60000DDA01240020DC49091D0860DB49C1F899
:103B7000BC01D9490860D949C1F8B00100E000246E
:103B8000204670BD00B502460B46D848007810B9F3
:103B90000020D7490860D548007801283DD10A2A7D
:103BA0003BDA1846FFF78EFFD14909680844D0492F
:103BB000086008460068062808DD08460068B42842
:103BC00004DA0020CB490870CB490870C848006867
:103BD000B4280ADDC6480068B0F5B47F05DA0120D4
:103BE000C54908700020C3490870C1480068B0F595
:103BF000B47F0ADDBE480068B0F5077F05DA002013
:103C0000BD4908700120BB490870B9480068B0F58B
:103C1000077F02DD0020B649086000BD70B506468A
:103C20000C461546B148007808B9002070BDB3486D
:103C3000008870B9B249304606F01AF809D2B14985
:103C4000304605F015FF04D21CB915B90120AB4967
:103C50000880AA480088012819D1AB480088401C78
:103C600080B2A9490880322803DD00200880A349DA
:103C70000880032C0BDD032D09DD282C07DA282D05
:103C800005DA00209D49088008800120CEE7002049
:103C9000CCE72DE9F04107460E4614461D469B48E9
:103CA0000088E0B92046FFF70DFF02462846FFF7DF
:103CB00009FF10441E2805DA95480088401C9449E5
:103CC000088002E0002092490880914800880A2874
:103CD00005DD01208D49088000208D4908808B4832
:103CE000008801281DD18B480088401C80B289497A
:103CF0000880C82803DD00200880844908808649A0
:103D0000384605F0B5FF0CD28449304605F0B0FFC7
:103D100007D28349304605F0ABFE02D202207B4930
:103D200008807A480088022816D17E480088401C06
:103D300080B27C490880642803DD00200880734934
:103D400008806019FFF7BEFE462805DD00206F4998
:103D500008800120BDE8F0810020FBE703461846FB
:103D6000884200DD0846904200DA104670472DE98F
:103D7000F04104466C48056800266C48007801282C
:103D800011D16B48007805F05FFE804669480068F5
:103D900080F000474146384605F00CFD6649086052
:103DA0006148056819E06548007801280FD160482E
:103DB000007805F049FE074639465E48006805F080
:103DC000F9FC5D49086058480568002605E00020B8
:103DD0005949086000255A4806683146204605F0D2
:103DE0007BFE074629465448006805F075FE80466C
:103DF000394605F071FC534908600846006805F033
:103E0000CFFDBDE8F0812DE9FC5F044689463948C5
:103E10000078012803D038480078012803D14A48A7
:103E20004A49086002E04A48484908604948007821
:103E300001280CD13E48007805F006FE05462946CB
:103E40004248006805F0B6FC4349086016E0434864
:103E5000007801280FD13648007805F0F5FD0646B8
:103E60003A48006880F000453146284605F0A2FC3B
:103E70003949086002E00020374908601D48007891
:103E800001281CD136480068C82818D93448006871
:103E9000B0F5FA7F13D22548007801280FD02748C3
:103EA000007801280BD02248007805F0CDFD0546AA
:103EB00029462648006805F07DFC274908600D4822
:103EC0000078012861D126480068C8285DD21748CB
:103ED0000078012859D045E0B48121420080214278
:103EE000402C0140000020C2000020421A000020A7
:103EF000E40000203F00002040000020E0000020FF
:103F0000000010C100003041E2000020D800002075
:103F1000DA000020DC0000200020CB46000098C121
:103F20000000A841DE0000205800002017000020FB
:103F300019000020D4000020CC0000201800002030
:103F40005C000020D00000200000F041C8000020EC
:103F50000000484215000020C0000020160000208C
:103F600038000020FE48007801280ED0FD48007877
:103F700005F06AFD0646FC48006880F000453146C1
:103F8000284605F017FCF9490860F948007801282F
:103F90001BD1F8480068B0F5E17F16D2F6480078EA
:103FA000012812D0EE48007801280ED0ED480078A4
:103FB00005F04AFD0646EC48006880F000453146B1
:103FC000284605F0F7FBE949086004EB090148427F
:103FD00005F022FDE9490860E948006805F050FB5A
:103FE0000746E84AE84B05F071F8054604F0DAFDAB
:103FF000E3490860E148006805F042FB0746E14AF2
:10400000E24B05F063F805460E46DD48006805F012
:1040100037FB82462A46334604F0F6FDCDE900011F
:1040200004F0C0FDD649086008460168D848006819
:1040300005F052FBD6490860CC480168D4480068B6
:1040400005F04AFBD2490860D249D148006805F022
:104050000FFE02D2CF48CE490860CF49CC48006855
:1040600005F006FD02D2CC48C9490860CB4801687A
:10407000C748006805F030FD0746C148006880F079
:104080000046C7480168304605F026FD054639461A
:1040900005F02AFEC3490860C3480168C3480068A8
:1040A000FFF74AFD012803D0C1480078012802D15A
:1040B0000020B7490860BB48006805F071FCBDE806
:1040C000FC9F2DE9F05F04460D464FF07E512046DF
:1040D00005F0FFFD80462946002005F005FE8146DB
:1040E000B4480168484605F0F7FC82464146B248AC
:1040F000006805F0F1FC8346514605F0EDFA0746ED
:1041000005F04EFC06463046BDE8F09F70B5322003
:10411000FEF7C4FB0546012D07D1A548007808B974
:10412000012000E00020A2490870FEF726FC0446AA
:10413000012C07D1A148007808B9012000E0002037
:104140009E49087070BD2DE9F04F87B083468A46BE
:10415000584604F090FF0022994BCDE9000104F08D
:10416000B5FF06460022974B04F0FEFD8046002274
:10417000954B04F0F9FD04460022944B04F0F4FD45
:10418000CDE9020104F00EFD0590059805F078FADE
:1041900080468F4A8F4B04F099FF064600228E4BD3
:1041A00004F094FF044604F0FDFC8C49086050467E
:1041B00004F061FF0022824BCDE9000104F086FF8C
:1041C000804600227F4B04F0CFFD064600227E4B46
:1041D00004F0CAFD00227D4BCDE9020104F0C4FDCC
:1041E000044604F0DFFC0490049805F049FA064602
:1041F000774A784B04F06AFF04460022764B04F0BD
:1042000065FF804604F0CEFC7549086007B0BDE844
:10421000F08F2DE9F04F8DB0804600207149086085
:10422000B8F1010F1BD103F05DFD6F4800685F49D5
:1042300008606E49B1F9000005F0EEFB6C490860BA
:104240006A49B1F9040005F0E7FB6A4908606A4968
:10425000B1F9040005F0E0FB6849086083E14421FE
:10426000D020FFF71CFA83464321D020FFF717FA2E
:104270000BEB0020099005F0CFFB04464621D0202F
:10428000FFF70DFA83464521D020FFF708FA0BEB24
:104290000020099005F0C0FB07464821D020FFF719
:1042A000FEF983464721D020FFF7F9F90BEB0020F8
:1042B000099005F0B1FB06463C21D020FFF7EFF94D
:1042C00083463B21D020FFF7EAF90BEB0020099051
:1042D00005F0A2FB82463E21D020FFF7E0F983469D
:1042E0003D21D020FFF7DBF90BEB0020099005F012
:1042F00093FB81464021D020FFF7D1F983463F212F
:10430000D020FFF7CCF90BEB0020099005F084FBDF
:1043100005464FF08E41204605F0AAFC05D24FF02D
:104320008F41204605F0E0FC04464FF08E413846B0
:1043300005F09EFC05D24FF08F41384605F0D4FCC5
:1043400007464FF08E41304605F092FC05D24FF003
:104350008F41304605F0C8FC06464FF08E414FE0D5
:104360001800002019000020C8000020C000002014
:10437000400000203800002017000020B800002076
:10438000BC0000209A9999999999E93F9999C93F58
:10439000C400002000401C4600401CC65400002001
:1043A00050000020B4000020280000202C00002035
:1043B0001A0000204C000020480000201B000020B4
:1043C000000069400000104000003E4000002A400C
:1043D000F1D4C853FB21094000C05040E800002040
:1043E000EC00002024000020B4010020A0010020E7
:1043F0003000002034000020A601002044000020EE
:10440000504605F035FC05D24FF08F41504605F07F
:104410006BFC82464FF08E41484605F029FC05D2E0
:104420004FF08F41484605F05FFC81464FF08E41CA
:10443000284605F01DFC05D24FF08F41284605F0B7
:1044400053FC054684F0004098490860284605F072
:1044500017F9CDE90201484605F012F9CDE900014E
:10446000DDE9022304F0B8FA0022914BCDE9040102
:1044700004F02CFE8F4A904BCDE9060104F074FC49
:10448000CDE9080104F08EFB0B90284605F0F8F802
:10449000CDE90201504605F0F3F8CDE90001DDE970
:1044A000022304F099FA0022814BCDE9040104F0C3
:1044B0000DFE804A804BCDE9060104F055FCCDE9A4
:1044C000080104F06FFB0A90204605F0D9F84FF080
:1044D00066327A4BCDE9060104F046FCCDE90801CD
:1044E00004F060FB0446384605F0CAF84FF0663227
:1044F000724BCDE9060104F037FCCDE9080104F068
:1045000051FB07466E480078022810D121460B98CF
:1045100000F0F8F880F000406A49086039460A98CF
:1045200000F030FA80F000406749086013E064480A
:10453000007803280FD121460B9800F0FAF980F09B
:1045400000406049086039460A9800F06FFB80F02F
:1045500000405D4908605B4800685C4908605C4851
:1045600006605C4805600DB0BDE8F08F2DE9F041B4
:104570005948006800287DD14FF4805057490860A1
:104580005748007808B9012000E00020544908701D
:104590004B480078FFF73DFE0220FEF790FE0746ED
:1045A0000420FEF78CFE804641463846FFF7CBFDDF
:1045B0004B480078012822D1FEF757FC4949086092
:1045C00049480068401C4849086048480068454917
:1045D00009680844454908604348006864280BD1CD
:1045E00008460068642190FBF1F041490860002012
:1045F0003E4908603C4908600020BDE8F081FFF7B3
:1046000085FD2A48016831480068FFF75AFD0446D5
:1046100041463846FFF7F7FB05462D480068FFF78F
:10462000A6FB064660193044324908606019801BB9
:1046300031490860314A51422E480068FFF78EFB2D
:104640002C4908602D4A51422B480068FFF786FB31
:104650002949086043463A461C4801681D480068DD
:10466000FFF717FB10B10120254908704246394673
:10467000164800E017E00068FFF7D0FA10B10020FC
:104680001F49087041463846FFF77CFA1848016810
:104690000E480068FFF750FA28B917480168154816
:1046A0000068FFF716FA0020A7E70000300000209E
:1046B00000806640F1D4C853FB2109406666304053
:1046C00014000020B4010020B00100202C000020C4
:1046D0003400002044000020300121421404014035
:1046E000B0000020A4000020A8000020AC000020A2
:1046F000280000201C000020200000200CE5FFFF07
:104700001A0000202DE9F05F05460C46FD4EFE4FD5
:104710004FF07C584FF00109FC480168204605F035
:10472000E3FA8346FA480168584605F0D5F982460F
:10473000F8480168504604F0CFFFF6490860F64893
:104740004168304605F0D0FA8246F3488168504609
:1047500005F0CAFAF1490860EF48C06880F00040EF
:104760004860ED48C06880F0004088600846C76037
:104770000868E749096805F0AFF98246E64801682C
:10478000504604F0A9FFE4490860E4494868E0495C
:10479000096805F0A1F98246DF484168504604F0F7
:1047A0009BFFDD494860DD498868D949096805F003
:1047B00093F98246D8488168504604F08DFFD64967
:1047C0008860D649C868D249096805F085F98246EB
:1047D000D148C168504604F07FFFCF49C860CD483A
:1047E0000168284605F080FACD490860484605F082
:1047F0002BF98246C8480168504605F06DF9C94951
:104800000860484605F020F98246C3488168504652
:1048100005F062F9C4490860484605F015F9834679
:10482000C0480168584605F057F98246414604F0F1
:1048300053FFBE49086008460168BA48006804F0A2
:10484000B9FFBB490860B9480168B748006804F07F
:10485000B1FFB8490860B3480068B74908604846E6
:1048600005F0F2F88246AC484168504605F034F94C
:10487000B2490860B0480168AD48006805F02CF9FD
:104880008246A5480168504605F023FAA24908600F
:10489000AA480168A648006805F01EF982469E48AD
:1048A0004168504605F015FA9B494860A2480168E6
:1048B000A048006805F010F9824697488168504684
:1048C00005F007FA944988609C4801689948006897
:1048D00005F002F982469048C168504605F0F9F9A2
:1048E0008D49C8608E4801689148006805F0F4F869
:1048F000824688480168504604F0EEFE854908600B
:10490000874801688B48006805F0E6F882467F48D2
:104910000168504604F0E0FE7C49086008460168E2
:10492000204605F0E1F9864908607A480068BDE84C
:10493000F09F2DE9F05F05460C46824E74480168F1
:10494000204605F0C9F883467F480168584604F0C0
:10495000C3FE804631464FF07E5005F0C5F98246D1
:10496000414605F0B9F807463146284605F0B4F847
:104970008146394604F0B0FE734908600846006875
:10498000BDE8F09F2DE9F05F05460C465D4E5E4F99
:104990004FF07C584FF001096C480168204605F043
:1049A000A3F983465A480168584605F095F88246AF
:1049B00067480168504604F08FFE65490860654805
:1049C0004168304605F090F9824662488168504659
:1049D00005F08AF9604908605E48C06880F00040D0
:1049E00048605C48C06880F0004088600846C76046
:1049F00008684749096805F06FF88246554801681C
:104A0000504604F069FE53490860534948684049DC
:104A1000096805F061F882464E484168504604F046
:104A20005BFE4C4948604C4988683949096805F083
:104A300053F8824647488168504604F04DFE454988
:104A400088604549C8683249096805F045F88246DA
:104A50004048C168504604F03FFE3E49C8603C48AB
:104A60000168284605F040F93C490860484604F0D2
:104A7000EBFF824637480168504605F02DF838496B
:104A80000860484604F0E0FF82463248816850469C
:104A900005F022F833490860484604F0D5FF834604
:104AA0002F480168584605F017F88246414604F041
:104AB00013FE2D490860084601682948006804F083
:104AC00079FE2A490860284801682648006804F0F1
:104AD00071FE274908602248006826490860484658
:104AE00004F0B2FF82461B484168504604F0F4FFD0
:104AF000214908601F4801681C48006804F0ECFF69
:104B000082463BE06F12833AA69B443BFC000020A8
:104B1000F0000020F800002020010020E80500201F
:104B20000001002004010020080100200C010020E9
:104B30001001002014010020180100201C01002099
:104B4000F40000200AD7A33C300100203C010020E3
:104B50003801002060010020F805002040010020FD
:104B600044010020480100204C0100205001002099
:104B700054010020580100205C01002040480168D9
:104B8000504605F0A6F83E4908603E4801683E4898
:104B9000006804F0A1FF824639484168504605F09C
:104BA00098F837494860394801683948006804F086
:104BB00093FF824632488168504605F08AF83049B2
:104BC0008860304801683248006804F085FF8246FA
:104BD0002B48C168504605F07CF82949C8602D482B
:104BE00001682948006804F077FF82462A48016876
:104BF000504604F071FD28490860264801682448A1
:104C0000006804F069FF824624480168504604F0B9
:104C100063FD2249086008460168204605F064F8F3
:104C20001F4908601C480068BDE8F09F2DE9F05F4F
:104C300005460C461B4E1C480168204604F04CFFFC
:104C400083461A480168584604F046FD80463146BE
:104C50004FF07E5005F048F88246414604F03CFF94
:104C600007463146284604F037FF8146394604F0AE
:104C700033FD0E49086008460068BDE8F09F00005B
:104C8000600100205C01002050010020580100203C
:104C90005401002040010020380100203C01002088
:104CA000340100200AD7A33CF0000020700100204E
:104CB00038B50446FB4890F82400C0B114B1022076
:104CC000009001E000200090F64A1268D17BF54A7E
:104CD000526810786B460122FEF742FC10B14FF08B
:104CE000FF3038BD9DF80010EE48417423E0ED48D8
:104CF000807A10B94FF0FF30F3E724B1E948407CE7
:104D000008B10020EDE714B10120009001E000207F
:104D10000090E44A1268D17BE24A526810786B46F0
:104D20000122FEF71DFC10B14FF0FF30D9E79DF8CE
:104D30000010DC4841740020D3E738B5002419E0A6
:104D4000D8480068C07AA04204D0D6480068407DA8
:104D5000A04200D10CE0D349496808786B46012293
:104D60002146FEF761FC10B14FF0FF3038BD00BFA7
:104D7000601CC4B2CB4840680079A042E0DC00204F
:104D8000F4E770B504460D46C6480068C07AA042F4
:104D900004D0C4480068407DA04202D14FF0FF30EB
:104DA00070BDC04840680079A04202DC4FF0FF307F
:104DB000F6E7BC49496808782B4601222146FEF7F0
:104DC00033FCEDE738B50446B64890F82300A0421E
:104DD00001D1002038BD14B13020009001E0002046
:104DE0000090B048807C20B19DF8000040F00200A7
:104DF0000090AC4890F8220020B19DF8000040F0EF
:104E000080000090A74A1268117DA64A5268107867
:104E10006B460122FEF7A4FB10B14FF0FF30D9E73B
:104E2000A04880F823400020D4E738B5044604F0B9
:104E3000700010B10120009005E014B10020009036
:104E400001E040200090974A1268917C954A526890
:104E500010786B460122FEF783FB20B100219148B8
:104E60008172481E38BD9DF8000020F040018D4839
:104E700001730020009004F0400020B99DF800006C
:104E800040F00400009004F0200020B99DF80000DC
:104E900040F00200009004F0100020B99DF80000DE
:104EA00040F00100009004F0080020B99DF80000D7
:104EB00040F0380000907B4A1268D17C794A5268F1
:104EC00010786B460122FEF74BFB20B1002175489C
:104ED0008172481EC6E724B1082C02D00020FFF7DB
:104EE00071FF70488472002101753220FDF7B7FA16
:104EF0000020B7E738B504466A48807CA04201D15B
:104F0000002038BD002C46D0664A12681179654AE7
:104F1000526810786B460122FEF786FB10B14FF005
:104F2000FF30EEE79DF8000020F0200000905D4A81
:104F3000126811795B4A526810786B460122FEF7BD
:104F40000FFB10B14FF0FF30DBE70320FDF787FACE
:104F500002200090534890F8220020B19DF80000F4
:104F600040F0800000904F4890F8230020B19DF859
:104F7000000040F0300000904A4A1268117D494A12
:104F8000526810786B460122FEF7EAFA002851D0E9
:104F90004FF0FF30B5E7434A12681179414A526831
:104FA00010786B460122FEF73FFB10B14FF0FF3047
:104FB000A7E73C48807A00F0010028B19DF8000086
:104FC00040F02000009004E09DF8000020F0200058
:104FD0000090344A12681179324A526810786B4650
:104FE0000122FEF7BDFA10B14FF0FF3089E7032030
:104FF000FDF735FA2B4890F8220010B18020009080
:1050000001E000200090274890F8230020B19DF88F
:10501000000040F030000090224A1268117D214AC1
:10502000526810786B460122FEF79AFA10B14FF0E1
:10503000FF3066E71B488474002062E708B5194812
:10504000807A10B94FF0FF3008BD00200090154A5B
:105050001268D17B134A526810786B460122FEF722
:105060007FFA10B14FF0FF30EEE70E4A1268517927
:105070000C4A526810786B460122FEF771FA10B1A3
:105080004FF0FF30E0E7074A12681179054A52688D
:1050900010786B460122FEF763FA28B14FF0FF301B
:1050A000D2E7000074010020F74890F8240000289F
:1050B00050D00C200090F44A12681179F24A5268DC
:1050C00010786B460122FEF74BFA10B14FF0FF301B
:1050D000BAE7C0200090EC48807A00F0010020B1CF
:1050E0009DF8000040F020000090E74A1268117916
:1050F000E54A526810786B460122FEF731FA10B18A
:105100004FF0FF30A0E7E048407C10B10220009053
:1051100001E000200090DC4A1268D17BDA4A526834
:1051200010786B460122FEF71BFA10B14FF0FF30EA
:105130008AE700200090D44A12685179D24A526816
:1051400010786B460122FEF70BFA002852D04FF080
:10515000FF3079E704200090CB4A12681179CA4ADF
:10516000526810786B460122FEF7FAF910B14FF041
:10517000FF3069E7C448807C20B9C348807A00F0DA
:10518000010010B94020009001E060200090BE4A6C
:1051900012681179BC4A526810786B460122FEF7FA
:1051A000DFF910B14FF0FF304EE7B748407C10B147
:1051B0000120009001E000200090B34A1268D17BEA
:1051C000B14A526810786B460122FEF7C9F910B156
:1051D0004FF0FF3038E7AC4A12685179AA4A52685A
:1051E0001078A94B10330122FEF7BAF910B14FF035
:1051F000FF3029E7002027E770B50446002624F099
:105200000104A14890F8240008B1002070BD9E4818
:10521000807A10B94FF0FF30F8E79B48057C807A20
:105220002040994908740846007CA04202D04FF003
:10523000FF3600E0002614B99348007D18B1012024
:10524000FFF736FD02E00020FFF732FD3CB1FFF72B
:10525000F5FE20B18C4805744FF0FF30D6E730469C
:10526000D4E738B504468848807A10B94FF0FF304B
:1052700038BDBC2C02DB0120009015E0622C02DB63
:105280000220009010E02A2C02DB032000900BE0AB
:10529000142C02DB0420009006E00A2C02DB05201F
:1052A000009001E0062000907748C07A9DF8001039
:1052B000884201D10020DBE7734A12689178724A74
:1052C000526810786B460122FEF74AF910B14FF090
:1052D000FF30CDE79DF800106B48C1720020C7E792
:1052E00038B50446282C02DD4FF0FF3038BDDCB95C
:1052F0000020FFF767FD00208DF8000007208DF8E3
:105300000100614A1268917C5F4A526810786B46CE
:105310000222FEF725F910B14FF0FF30E6E7002139
:10532000594801750020E1E70120FFF74BFD2020DF
:105330008DF80000012C06D100208DF80100052019
:10534000FFF78FFF17E0052C06DC01208DF8010028
:105350000520FFF786FF0EE0142C06DC02208DF8F6
:1053600001000A20FFF77DFF05E003208DF8010012
:105370001420FFF776FF9DF80100072101EB801054
:10538000C0B28DF80100404A1268917C3E4A5268D2
:1053900010786B460222FEF7E3F810B14FF0FF30B1
:1053A000A4E70821384881720021017301210175A9
:1053B0000020FFF721FF002098E738B50446324867
:1053C000807A10B94FF0FF3038BD2F4890F8240094
:1053D00010B14FF0FF30F7E72B48007D50B134B1EA
:1053E000282C04DCE0B2FFF77BFF0020ECE7002074
:1053F000FFF776FF042C01DA042404E0B4F57A7F89
:1054000001DD4FF47A744FF47A7090FBF4F0401E93
:10541000C0B200901C4A126851781B4A526810783A
:105420006B460122FEF79CF810B14FF0FF30CBE73E
:105430009DF80000401C4FF47A7191FBF0F081B2AE
:105440001148C1810146C9894810FFF70AFF0020B1
:10545000BAE738B504460C48807A10B94FF0FF30EF
:1054600038BD022C06D0042C07D0082C08D0102CF4
:105470000FD10BE0002000900EE0082000900BE020
:105480001020009008E00000740100201820009017
:1054900002E04FF0FF30E3E700BFF948407A9DF8A3
:1054A0000010B0EBE10F01D10020D9E7F44A1268F7
:1054B000D179F34A526810786B460122FEF750F812
:1054C00010B14FF0FF30CBE79DF80000C110EC4861
:1054D00041720020C4E738B50446E948807A10B923
:1054E0004FF0FF3038BDFA2C09D0B4F5FA7F09D05F
:1054F000B4F57A7F09D0B4F5FA6F0CD108E000203A
:1055000000900BE00820009008E01020009005E0DB
:105510001820009002E04FF0FF30E3E700BFD848CA
:10552000007A9DF80010B0EBE10F01D10020D9E71F
:10553000D34A12689179D24A526810786B46012298
:10554000FEF70EF810B14FF0FF30CBE79DF80000EA
:10555000C010CB4908720020C4E71CB580208DF82C
:105560000000C74A1268917CC54A526810786B46A1
:105570000122FDF7F5FF10B14FF0FF301CBD642094
:10558000FCF76DFF00208DF80000BD4A1268917C89
:10559000BB4A526810786B460122FDF7E1FF10B15B
:1055A0004FF0FF30EAE7B64A1268917DB44A52687C
:1055B00010786B460622FEF737F810B14FF0FF3037
:1055C000DCE79DF80500C007400F9DF8031001F0CF
:1055D000010140EA41009DF8011001F0010140EA9B
:1055E000010494B1012C03D10121A548C17431E01B
:1055F000022C03D10021A248C1742BE02146A1A0B6
:1056000002F0EAFC4FF0FF30B8E79D4A1268D1780B
:105610009B4A526810786B460122FEF705F810B1DC
:105620004FF0FF30AAE79DF8000000F00F042CB9FE
:105630009E4802F0D1FC4FF0FF309FE7042C06D1CA
:105640009BA002F0C9FC01218D48C17402E0002139
:105650008B48C174FF218A488172FF2088490872F3
:10566000FF2187484172C1724FF6FF71C181FF214E
:10567000017481740121017380F82210002180F8E7
:105680002310417501751630016041608160163844
:1056900080F8241080F82510C1844FF4FA60FFF7D9
:1056A0001AFF10B14FF0FF3068E70220FFF7D1FE7C
:1056B00010B14FF0FF3061E72A20FFF7D2FD10B1A3
:1056C0004FF0FF305AE73220FFF777FE10B14FF06E
:1056D000FF3053E70020FFF78FFD10B14FF0FF3090
:1056E0004CE70020FFF706FC10B14FF0FF3045E714
:1056F0000020FFF79AFB002040E770477CB5044686
:105700000D465F48807A00F0700010B94FF0FF300E
:105710007CBD5B4A1268117B594A526810786B460F
:105720000622FDF781FF10B14FF0FF30F0E79DF842
:1057300001009DF8001040EA012000B220809DF891
:1057400003009DF8021040EA012000B260809DF83D
:1057500005009DF8041040EA012000B2A08015B1B8
:105760002846FFF7CAFF0020D2E77CB504460D4665
:105770004348807A00F0080010B94FF0FF307CBD3C
:105780003F4A1268517B3E4A526810786B460622A7
:10579000FDF74AFF10B14FF0FF30F0E79DF8010030
:1057A0009DF8001040EA012000B220809DF803001F
:1057B0009DF8021040EA012000B260809DF80500CB
:1057C0009DF8041040EA012000B2A08015B12846DF
:1057D000FFF793FF0020D2E72DE9FE4F05460C4668
:1057E0002748807A18B94FF0FF30BDE8FE8F244A71
:1057F0001268917B224A5268107802AB0222FDF7B0
:1058000013FF10B14FF0FF30EFE79DF809009DF84E
:10581000081040EA012006B214B12046FFF76DFFE0
:1058200017494968C88804F00FF91549019049687B
:10583000B1F9080004F0F0F88346304604F0ECF8C3
:105840005946009004F050FA8246019903F0B2FFE5
:1058500081461F4903F040FF80464FF08F4104F01E
:105860003BF9074604F09CF828600020BDE710B51E
:1058700088B004461CB94FF0FF3008B010BD29E0D5
:1058800074010020556E737570706F7274656420BA
:10589000736F6674776172652070726F647563747C
:1058A000207265762025642E0A00000060B600088C
:1058B00048616C662073656E736974697669747982
:1058C000207061727420666F756E642E0D0A000080
:1058D00000000C42206830B9606820B9A06810B997
:1058E000002008B010BDFA494968087806AB0322C9
:1058F0001146FDF799FE10B14FF0FF30F1E79DF82A
:105900001800082101EB201000F00F00ADF8000096
:105910009DF8190001EB201000F00F00ADF8020017
:105920009DF81A0001EB201000F00F00ADF8040004
:1059300020684100BDF90000403091FBF0F000B25A
:10594000ADF8100060684100BDF90200403091FBE5
:10595000F0F000B2ADF81200A0684100BDF90400FB
:10596000403091FBF0F000B2ADF81400D84949681E
:10597000087806AB06221146FDF756FE10B14FF02F
:10598000FF30AEE79DF819009DF8181040EA01209D
:1059900000B2ADF808009DF81B009DF81A1040EA0F
:1059A000012000B2ADF80A009DF81D009DF81C1002
:1059B00040EA012000B2ADF80C00BDF81000BDF8BF
:1059C0000810084400B2ADF81000BDF81200BDF890
:1059D0000A10084400B2ADF81200BDF81400BDF87A
:1059E0000C10084400B2ADF81400BDF81000000A15
:1059F0008DF81800BDF81000C0B28DF81900BDF880
:105A00001200000A8DF81A00BDF81200C0B28DF81D
:105A10001B00BDF81400000A8DF81C00BDF814002E
:105A2000C0B28DF81D00AA494968087806AB062265
:105A30001146FDF795FD10B14FF0FF3051E7002002
:105A40004FE70146A248007A30B1012807D002286A
:105A500009D003280FD10AE0FA2008800EE04FF4A5
:105A6000FA7008800AE04FF47A70088006E04FF47C
:105A7000FA60088002E00020088000BF00BF00201C
:105A8000704701469248407A30B1012807D0022879
:105A900008D003280CD108E0022008700BE0042095
:105AA000087008E00820087005E01020087002E087
:105AB0004FF0FF30704700BF8548C07C18B10878B0
:105AC0004006000E08700020F4E701468048C07AC6
:105AD000082817D2DFE800F01704070A0D10131882
